{
  "contractName": "Contacts",
  "abi": [
    {
      "inputs": [],
      "payable": false,
      "stateMutability": "nonpayable",
      "type": "constructor"
    },
    {
      "constant": true,
      "inputs": [
        {
          "internalType": "uint256",
          "name": "",
          "type": "uint256"
        }
      ],
      "name": "clinicalTrials",
      "outputs": [
        {
          "internalType": "uint256",
          "name": "id",
          "type": "uint256"
        },
        {
          "internalType": "uint256",
          "name": "parentId",
          "type": "uint256"
        },
        {
          "internalType": "string",
          "name": "name",
          "type": "string"
        },
        {
          "internalType": "address",
          "name": "createdBy",
          "type": "address"
        },
        {
          "internalType": "uint256",
          "name": "createdAt",
          "type": "uint256"
        }
      ],
      "payable": false,
      "stateMutability": "view",
      "type": "function"
    },
    {
      "constant": true,
      "inputs": [],
      "name": "clinicalTrialsCount",
      "outputs": [
        {
          "internalType": "uint256",
          "name": "",
          "type": "uint256"
        }
      ],
      "payable": false,
      "stateMutability": "view",
      "type": "function"
    },
    {
      "constant": true,
      "inputs": [
        {
          "internalType": "uint256",
          "name": "",
          "type": "uint256"
        }
      ],
      "name": "patients",
      "outputs": [
        {
          "internalType": "address",
          "name": "",
          "type": "address"
        }
      ],
      "payable": false,
      "stateMutability": "view",
      "type": "function"
    },
    {
      "constant": true,
      "inputs": [
        {
          "internalType": "address",
          "name": "",
          "type": "address"
        }
      ],
      "name": "patientsConsents",
      "outputs": [
        {
          "internalType": "uint256",
          "name": "count",
          "type": "uint256"
        }
      ],
      "payable": false,
      "stateMutability": "view",
      "type": "function"
    },
    {
      "constant": true,
      "inputs": [
        {
          "internalType": "uint256",
          "name": "",
          "type": "uint256"
        }
      ],
      "name": "researchers",
      "outputs": [
        {
          "internalType": "address",
          "name": "",
          "type": "address"
        }
      ],
      "payable": false,
      "stateMutability": "view",
      "type": "function"
    },
    {
      "constant": false,
      "inputs": [
        {
          "internalType": "string",
          "name": "_name",
          "type": "string"
        }
      ],
      "name": "createClinicalTrial",
      "outputs": [],
      "payable": false,
      "stateMutability": "nonpayable",
      "type": "function"
    },
    {
      "constant": false,
      "inputs": [
        {
          "internalType": "uint256",
          "name": "_clinicalTrialId",
          "type": "uint256"
        },
        {
          "internalType": "string[]",
          "name": "_generalInformation",
          "type": "string[]"
        },
        {
          "internalType": "string[]",
          "name": "_rareDiseaseClauses",
          "type": "string[]"
        }
      ],
      "name": "updateClinicalTrial",
      "outputs": [],
      "payable": false,
      "stateMutability": "nonpayable",
      "type": "function"
    },
    {
      "constant": true,
      "inputs": [],
      "name": "getClinicalTrials",
      "outputs": [
        {
          "components": [
            {
              "internalType": "uint256",
              "name": "id",
              "type": "uint256"
            },
            {
              "internalType": "uint256",
              "name": "parentId",
              "type": "uint256"
            },
            {
              "internalType": "string",
              "name": "name",
              "type": "string"
            },
            {
              "internalType": "address",
              "name": "createdBy",
              "type": "address"
            },
            {
              "internalType": "uint256",
              "name": "createdAt",
              "type": "uint256"
            }
          ],
          "internalType": "struct Contacts.ClinicalTrial[]",
          "name": "",
          "type": "tuple[]"
        }
      ],
      "payable": false,
      "stateMutability": "view",
      "type": "function"
    },
    {
      "constant": true,
      "inputs": [
        {
          "internalType": "uint256",
          "name": "_clinicalTrialId",
          "type": "uint256"
        }
      ],
      "name": "getClinicalTrialConsents",
      "outputs": [
        {
          "components": [
            {
              "internalType": "uint256",
              "name": "id",
              "type": "uint256"
            },
            {
              "internalType": "uint256",
              "name": "parentId",
              "type": "uint256"
            },
            {
              "internalType": "uint256",
              "name": "clinicalTrialId",
              "type": "uint256"
            },
            {
              "internalType": "address",
              "name": "requestedBy",
              "type": "address"
            },
            {
              "internalType": "address",
              "name": "patient",
              "type": "address"
            },
            {
              "internalType": "enum Contacts.ConsentStatus",
              "name": "status",
              "type": "uint8"
            },
            {
              "internalType": "uint256",
              "name": "statusChangedAt",
              "type": "uint256"
            },
            {
              "internalType": "address",
              "name": "statusChangedBy",
              "type": "address"
            },
            {
              "internalType": "uint256",
              "name": "createdAt",
              "type": "uint256"
            },
            {
              "internalType": "uint256",
              "name": "expiresAt",
              "type": "uint256"
            },
            {
              "internalType": "string",
              "name": "additionalInformation",
              "type": "string"
            }
          ],
          "internalType": "struct Contacts.Consent[]",
          "name": "",
          "type": "tuple[]"
        }
      ],
      "payable": false,
      "stateMutability": "view",
      "type": "function"
    },
    {
      "constant": false,
      "inputs": [
        {
          "internalType": "address",
          "name": "_patientAddr",
          "type": "address"
        },
        {
          "internalType": "uint256",
          "name": "_clinicalTrialId",
          "type": "uint256"
        },
        {
          "internalType": "uint256",
          "name": "_parentId",
          "type": "uint256"
        },
        {
          "internalType": "uint256",
          "name": "_expiresAt",
          "type": "uint256"
        },
        {
          "internalType": "string",
          "name": "_additionalInformation",
          "type": "string"
        }
      ],
      "name": "requestConsent",
      "outputs": [],
      "payable": false,
      "stateMutability": "nonpayable",
      "type": "function"
    },
    {
      "constant": false,
      "inputs": [
        {
          "internalType": "uint256",
          "name": "_consentId",
          "type": "uint256"
        }
      ],
      "name": "rejectConsent",
      "outputs": [],
      "payable": false,
      "stateMutability": "nonpayable",
      "type": "function"
    },
    {
      "constant": true,
      "inputs": [
        {
          "internalType": "address",
          "name": "_patientAddr",
          "type": "address"
        }
      ],
      "name": "getPatientConsents",
      "outputs": [
        {
          "components": [
            {
              "internalType": "uint256",
              "name": "id",
              "type": "uint256"
            },
            {
              "internalType": "uint256",
              "name": "parentId",
              "type": "uint256"
            },
            {
              "internalType": "uint256",
              "name": "clinicalTrialId",
              "type": "uint256"
            },
            {
              "internalType": "address",
              "name": "requestedBy",
              "type": "address"
            },
            {
              "internalType": "address",
              "name": "patient",
              "type": "address"
            },
            {
              "internalType": "enum Contacts.ConsentStatus",
              "name": "status",
              "type": "uint8"
            },
            {
              "internalType": "uint256",
              "name": "statusChangedAt",
              "type": "uint256"
            },
            {
              "internalType": "address",
              "name": "statusChangedBy",
              "type": "address"
            },
            {
              "internalType": "uint256",
              "name": "createdAt",
              "type": "uint256"
            },
            {
              "internalType": "uint256",
              "name": "expiresAt",
              "type": "uint256"
            },
            {
              "internalType": "string",
              "name": "additionalInformation",
              "type": "string"
            }
          ],
          "internalType": "struct Contacts.Consent[]",
          "name": "",
          "type": "tuple[]"
        }
      ],
      "payable": false,
      "stateMutability": "view",
      "type": "function"
    }
  ],
  "bytecode": "0x6080604052600080556000600355604051806060016040528073beb9826bba0ac436a4a12dcc584a0b234640506873ffffffffffffffffffffffffffffffffffffffff1673ffffffffffffffffffffffffffffffffffffffff16815260200173b4b0bf3942651724d34327694787e24bd2147aa573ffffffffffffffffffffffffffffffffffffffff1673ffffffffffffffffffffffffffffffffffffffff1681526020017385d0304fb869448b460befaa8fb246a6c4e2b72c73ffffffffffffffffffffffffffffffffffffffff1673ffffffffffffffffffffffffffffffffffffffff168152506005906003620000fa9291906200010f565b503480156200010857600080fd5b50620001e4565b8280548282559060005260206000209081019282156200018b579160200282015b828111156200018a5782518260006101000a81548173ffffffffffffffffffffffffffffffffffffffff021916908373ffffffffffffffffffffffffffffffffffffffff1602179055509160200191906001019062000130565b5b5090506200019a91906200019e565b5090565b620001e191905b80821115620001dd57600081816101000a81549073ffffffffffffffffffffffffffffffffffffffff021916905550600101620001a5565b5090565b90565b61265980620001f46000396000f3fe608060405234801561001057600080fd5b50600436106100b45760003560e01c80637351add8116100715780637351add81461018f57806393119a83146101bf5780639e98f396146101ef578063b96a84d11461021f578063c51a978d1461023b578063fdbd846a1461026b576100b4565b80630190d151146100b957806324924385146100d75780633dbe8d5414610107578063420584631461013b5780635ec2b0e4146101575780637118e87914610173575b600080fd5b6100c1610289565b6040516100ce9190612366565b60405180910390f35b6100f160048036036100ec9190810190611c06565b61028f565b6040516100fe91906122a4565b60405180910390f35b610121600480360361011c9190810190611cff565b61067c565b604051610132959493929190612381565b60405180910390f35b61015560048036036101509190810190611d28565b61076a565b005b610171600480360361016c9190810190611cff565b610ba6565b005b61018d60048036036101889190810190611cbe565b610cf9565b005b6101a960048036036101a49190810190611cff565b610e2f565b6040516101b691906122a4565b60405180910390f35b6101d960048036036101d49190810190611cff565b611321565b6040516101e69190612267565b60405180910390f35b61020960048036036102049190810190611c06565b611354565b6040516102169190612366565b60405180910390f35b61023960048036036102349190810190611c2f565b611372565b005b61025560048036036102509190810190611cff565b61169e565b6040516102629190612267565b60405180910390f35b6102736116da565b6040516102809190612282565b60405180910390f35b60035481565b60603373ffffffffffffffffffffffffffffffffffffffff168273ffffffffffffffffffffffffffffffffffffffff1614806102cf57506102ce61188f565b5b61030e576040517f08c379a0000000000000000000000000000000000000000000000000000000008152600401610305906122e6565b60405180910390fd5b6060600260008473ffffffffffffffffffffffffffffffffffffffff1673ffffffffffffffffffffffffffffffffffffffff1681526020019081526020016000206000015460405190808252806020026020018201604052801561038c57816020015b61037961192f565b8152602001906001900390816103715790505b50905060008090505b600260008573ffffffffffffffffffffffffffffffffffffffff1673ffffffffffffffffffffffffffffffffffffffff1681526020019081526020016000206000015481101561067257600260008573ffffffffffffffffffffffffffffffffffffffff1673ffffffffffffffffffffffffffffffffffffffff1681526020019081526020016000206001016000600183018152602001908152602001600020604051806101600160405290816000820154815260200160018201548152602001600282015481526020016003820160009054906101000a900473ffffffffffffffffffffffffffffffffffffffff1673ffffffffffffffffffffffffffffffffffffffff1673ffffffffffffffffffffffffffffffffffffffff1681526020016004820160009054906101000a900473ffffffffffffffffffffffffffffffffffffffff1673ffffffffffffffffffffffffffffffffffffffff1673ffffffffffffffffffffffffffffffffffffffff1681526020016004820160149054906101000a900460ff16600481111561052957fe5b600481111561053457fe5b8152602001600582015481526020016006820160009054906101000a900473ffffffffffffffffffffffffffffffffffffffff1673ffffffffffffffffffffffffffffffffffffffff1673ffffffffffffffffffffffffffffffffffffffff1681526020016007820154815260200160088201548152602001600982018054600181600116156101000203166002900480601f0160208091040260200160405190810160405280929190818152602001828054600181600116156101000203166002900480156106455780601f1061061a57610100808354040283529160200191610645565b820191906000526020600020905b81548152906001019060200180831161062857829003601f168201915b50505050508152505082828151811061065a57fe5b60200260200101819052508080600101915050610395565b5080915050919050565b6004602052806000526040600020600091509050806000015490806001015490806002018054600181600116156101000203166002900480601f0160208091040260200160405190810160405280929190818152602001828054600181600116156101000203166002900480156107345780601f1061070957610100808354040283529160200191610734565b820191906000526020600020905b81548152906001019060200180831161071757829003601f168201915b5050505050908060030160009054906101000a900473ffffffffffffffffffffffffffffffffffffffff16908060040154905085565b61077261188f565b6107b1576040517f08c379a00000000000000000000000000000000000000000000000000000000081526004016107a8906122c6565b60405180910390fd5b600183101580156107c457506003548311155b610803576040517f08c379a00000000000000000000000000000000000000000000000000000000081526004016107fa90612326565b60405180910390fd5b6003600081548092919060010191905055506040518060a0016040528060035481526020018481526020016004600060035481526020019081526020016000206002018054600181600116156101000203166002900480601f0160208091040260200160405190810160405280929190818152602001828054600181600116156101000203166002900480156108da5780601f106108af576101008083540402835291602001916108da565b820191906000526020600020905b8154815290600101906020018083116108bd57829003601f168201915b505050505081526020013373ffffffffffffffffffffffffffffffffffffffff16815260200142815250600460006003548152602001908152602001600020600082015181600001556020820151816001015560408201518160020190805190602001906109499291906119d6565b5060608201518160030160006101000a81548173ffffffffffffffffffffffffffffffffffffffff021916908373ffffffffffffffffffffffffffffffffffffffff160217905550608082015181600401559050506000600190505b6000548111610ba05760006001600083815260200190815260200160002060009054906101000a900473ffffffffffffffffffffffffffffffffffffffff1690506000600260008373ffffffffffffffffffffffffffffffffffffffff1673ffffffffffffffffffffffffffffffffffffffff16815260200190815260200160002090506000600190505b81600001548111610b9057600082600101600083815260200190815260200160002090508781600201541415610b825760048160040160146101000a81548160ff02191690836004811115610a8157fe5b0217905550428160050181905550338160060160006101000a81548173ffffffffffffffffffffffffffffffffffffffff021916908373ffffffffffffffffffffffffffffffffffffffff160217905550610b8184600354848460080154856009018054600181600116156101000203166002900480601f016020809104026020016040519081016040528092919081815260200182805460018160011615610100020316600290048015610b775780601f10610b4c57610100808354040283529160200191610b77565b820191906000526020600020905b815481529060010190602001808311610b5a57829003601f168201915b5050505050611372565b5b508080600101915050610a30565b50505080806001019150506109a5565b50505050565b6000600260003373ffffffffffffffffffffffffffffffffffffffff1673ffffffffffffffffffffffffffffffffffffffff168152602001908152602001600020905060018210158015610bfe575080600001548211155b610c3d576040517f08c379a0000000000000000000000000000000000000000000000000000000008152600401610c3490612306565b60405180910390fd5b60006004811115610c4a57fe5b81600101600084815260200190815260200160002060040160149054906101000a900460ff166004811115610c7b57fe5b14610cbb576040517f08c379a0000000000000000000000000000000000000000000000000000000008152600401610cb290612346565b60405180910390fd5b600281600101600084815260200190815260200160002060040160146101000a81548160ff02191690836004811115610cf057fe5b02179055505050565b610d0161188f565b610d40576040517f08c379a0000000000000000000000000000000000000000000000000000000008152600401610d37906122c6565b60405180910390fd5b6003600081548092919060010191905055506040518060a001604052806003548152602001600081526020018281526020013373ffffffffffffffffffffffffffffffffffffffff1681526020014281525060046000600354815260200190815260200160002060008201518160000155602082015181600101556040820151816002019080519060200190610dd79291906119d6565b5060608201518160030160006101000a81548173ffffffffffffffffffffffffffffffffffffffff021916908373ffffffffffffffffffffffffffffffffffffffff1602179055506080820151816004015590505050565b6060610e3961188f565b610e78576040517f08c379a0000000000000000000000000000000000000000000000000000000008152600401610e6f906122e6565b60405180910390fd5b60018210158015610e8b57506003548211155b610eca576040517f08c379a0000000000000000000000000000000000000000000000000000000008152600401610ec190612326565b60405180910390fd5b600080905060008090505b600054811015610fb8576000600260006001600060018601815260200190815260200160002060009054906101000a900473ffffffffffffffffffffffffffffffffffffffff1673ffffffffffffffffffffffffffffffffffffffff1673ffffffffffffffffffffffffffffffffffffffff168152602001908152602001600020905060008090505b8160000154811015610fa957600082600101600060018401815260200190815260200160002090508681600201541415610f9b5784806001019550505b508080600101915050610f5e565b50508080600101915050610ed5565b50606081604051908082528060200260200182016040528015610ff557816020015b610fe261192f565b815260200190600190039081610fda5790505b509050600080905060008090505b600054811015611315576000600260006001600060018601815260200190815260200160002060009054906101000a900473ffffffffffffffffffffffffffffffffffffffff1673ffffffffffffffffffffffffffffffffffffffff1673ffffffffffffffffffffffffffffffffffffffff168152602001908152602001600020905060008090505b8160000154811015611306576000826001016000600184018152602001908152602001600020905088816002015414156112f85780604051806101600160405290816000820154815260200160018201548152602001600282015481526020016003820160009054906101000a900473ffffffffffffffffffffffffffffffffffffffff1673ffffffffffffffffffffffffffffffffffffffff1673ffffffffffffffffffffffffffffffffffffffff1681526020016004820160009054906101000a900473ffffffffffffffffffffffffffffffffffffffff1673ffffffffffffffffffffffffffffffffffffffff1673ffffffffffffffffffffffffffffffffffffffff1681526020016004820160149054906101000a900460ff1660048111156111b557fe5b60048111156111c057fe5b8152602001600582015481526020016006820160009054906101000a900473ffffffffffffffffffffffffffffffffffffffff1673ffffffffffffffffffffffffffffffffffffffff1673ffffffffffffffffffffffffffffffffffffffff1681526020016007820154815260200160088201548152602001600982018054600181600116156101000203166002900480601f0160208091040260200160405190810160405280929190818152602001828054600181600116156101000203166002900480156112d15780601f106112a6576101008083540402835291602001916112d1565b820191906000526020600020905b8154815290600101906020018083116112b457829003601f168201915b5050505050815250508686806001019750815181106112ec57fe5b60200260200101819052505b50808060010191505061108c565b50508080600101915050611003565b50819350505050919050565b60016020528060005260406000206000915054906101000a900473ffffffffffffffffffffffffffffffffffffffff1681565b60026020528060005260406000206000915090508060000154905081565b61137a61188f565b6113b9576040517f08c379a00000000000000000000000000000000000000000000000000000000081526004016113b0906122c6565b60405180910390fd5b6000600260008773ffffffffffffffffffffffffffffffffffffffff1673ffffffffffffffffffffffffffffffffffffffff168152602001908152602001600020905060008160000154141561146e57600080815480929190600101919050555085600160008054815260200190815260200160002060006101000a81548173ffffffffffffffffffffffffffffffffffffffff021916908373ffffffffffffffffffffffffffffffffffffffff1602179055505b8060000160008154809291906001019190505550604051806101600160405280826000015481526020018581526020018681526020013373ffffffffffffffffffffffffffffffffffffffff1681526020018773ffffffffffffffffffffffffffffffffffffffff168152602001600060048111156114e957fe5b81526020014281526020013373ffffffffffffffffffffffffffffffffffffffff168152602001428152602001848152602001838152508160010160008360000154815260200190815260200160002060008201518160000155602082015181600101556040820151816002015560608201518160030160006101000a81548173ffffffffffffffffffffffffffffffffffffffff021916908373ffffffffffffffffffffffffffffffffffffffff16021790555060808201518160040160006101000a81548173ffffffffffffffffffffffffffffffffffffffff021916908373ffffffffffffffffffffffffffffffffffffffff16021790555060a08201518160040160146101000a81548160ff0219169083600481111561160957fe5b021790555060c0820151816005015560e08201518160060160006101000a81548173ffffffffffffffffffffffffffffffffffffffff021916908373ffffffffffffffffffffffffffffffffffffffff160217905550610100820151816007015561012082015181600801556101408201518160090190805190602001906116929291906119d6565b50905050505050505050565b600581815481106116ab57fe5b906000526020600020016000915054906101000a900473ffffffffffffffffffffffffffffffffffffffff1681565b60608060035460405190808252806020026020018201604052801561171957816020015b611706611a56565b8152602001906001900390816116fe5790505b50905060008090505b60035481101561188757600460006001830181526020019081526020016000206040518060a00160405290816000820154815260200160018201548152602001600282018054600181600116156101000203166002900480601f0160208091040260200160405190810160405280929190818152602001828054600181600116156101000203166002900480156117fa5780601f106117cf576101008083540402835291602001916117fa565b820191906000526020600020905b8154815290600101906020018083116117dd57829003601f168201915b505050505081526020016003820160009054906101000a900473ffffffffffffffffffffffffffffffffffffffff1673ffffffffffffffffffffffffffffffffffffffff1673ffffffffffffffffffffffffffffffffffffffff16815260200160048201548152505082828151811061186f57fe5b60200260200101819052508080600101915050611722565b508091505090565b600080600090505b600580549050811015611926573373ffffffffffffffffffffffffffffffffffffffff16600582815481106118c857fe5b9060005260206000200160009054906101000a900473ffffffffffffffffffffffffffffffffffffffff1673ffffffffffffffffffffffffffffffffffffffff16141561191957600191505061192c565b8080600101915050611897565b50600090505b90565b604051806101600160405280600081526020016000815260200160008152602001600073ffffffffffffffffffffffffffffffffffffffff168152602001600073ffffffffffffffffffffffffffffffffffffffff1681526020016000600481111561199757fe5b815260200160008152602001600073ffffffffffffffffffffffffffffffffffffffff1681526020016000815260200160008152602001606081525090565b828054600181600116156101000203166002900490600052602060002090601f016020900481019282601f10611a1757805160ff1916838001178555611a45565b82800160010185558215611a45579182015b82811115611a44578251825591602001919060010190611a29565b5b509050611a529190611a9b565b5090565b6040518060a00160405280600081526020016000815260200160608152602001600073ffffffffffffffffffffffffffffffffffffffff168152602001600081525090565b611abd91905b80821115611ab9576000816000905550600101611aa1565b5090565b90565b600081359050611acf816125e8565b92915050565b600082601f830112611ae657600080fd5b8135611af9611af482612408565b6123db565b9150818183526020840193506020810190508360005b83811015611b3f5781358601611b258882611b49565b845260208401935060208301925050600181019050611b0f565b5050505092915050565b600082601f830112611b5a57600080fd5b8135611b6d611b6882612430565b6123db565b91508082526020830160208301858383011115611b8957600080fd5b611b94838284612588565b50505092915050565b600082601f830112611bae57600080fd5b8135611bc1611bbc8261245c565b6123db565b91508082526020830160208301858383011115611bdd57600080fd5b611be8838284612588565b50505092915050565b600081359050611c00816125ff565b92915050565b600060208284031215611c1857600080fd5b6000611c2684828501611ac0565b91505092915050565b600080600080600060a08688031215611c4757600080fd5b6000611c5588828901611ac0565b9550506020611c6688828901611bf1565b9450506040611c7788828901611bf1565b9350506060611c8888828901611bf1565b925050608086013567ffffffffffffffff811115611ca557600080fd5b611cb188828901611b9d565b9150509295509295909350565b600060208284031215611cd057600080fd5b600082013567ffffffffffffffff811115611cea57600080fd5b611cf684828501611b9d565b91505092915050565b600060208284031215611d1157600080fd5b6000611d1f84828501611bf1565b91505092915050565b600080600060608486031215611d3d57600080fd5b6000611d4b86828701611bf1565b935050602084013567ffffffffffffffff811115611d6857600080fd5b611d7486828701611ad5565b925050604084013567ffffffffffffffff811115611d9157600080fd5b611d9d86828701611ad5565b9150509250925092565b6000611db383836120e4565b905092915050565b6000611dc7838361215a565b905092915050565b611dd881612527565b82525050565b611de781612527565b82525050565b6000611df8826124a8565b611e0281856124e3565b935083602082028501611e1485612488565b8060005b85811015611e505784840389528151611e318582611da7565b9450611e3c836124c9565b925060208a01995050600181019050611e18565b50829750879550505050505092915050565b6000611e6d826124b3565b611e7781856124f4565b935083602082028501611e8985612498565b8060005b85811015611ec55784840389528151611ea68582611dbb565b9450611eb1836124d6565b925060208a01995050600181019050611e8d565b50829750879550505050505092915050565b611ee081612576565b82525050565b6000611ef1826124be565b611efb8185612505565b9350611f0b818560208601612597565b611f14816125ca565b840191505092915050565b6000611f2a826124be565b611f348185612516565b9350611f44818560208601612597565b611f4d816125ca565b840191505092915050565b6000611f65602883612516565b91507f4f6e6c792072657365617263686572732063616e20706572666f726d2074686960008301527f7320616374696f6e0000000000000000000000000000000000000000000000006020830152604082019050919050565b6000611fcb601283612516565b91507f416363657373206e6f7420616c6c6f77656400000000000000000000000000006000830152602082019050919050565b600061200b601283612516565b91507f496e76616c696420636f6e73656e7420494400000000000000000000000000006000830152602082019050919050565b600061204b601983612516565b91507f496e76616c696420636c696e6963616c20747269616c204944000000000000006000830152602082019050919050565b600061208b602183612516565b91507f436f6e73656e74206e6f7420696e20275245515545535445442720737461747560008301527f73000000000000000000000000000000000000000000000000000000000000006020830152604082019050919050565b600060a0830160008301516120fc6000860182612249565b50602083015161210f6020860182612249565b50604083015184820360408601526121278282611ee6565b915050606083015161213c6060860182611dcf565b50608083015161214f6080860182612249565b508091505092915050565b6000610160830160008301516121736000860182612249565b5060208301516121866020860182612249565b5060408301516121996040860182612249565b5060608301516121ac6060860182611dcf565b5060808301516121bf6080860182611dcf565b5060a08301516121d260a0860182611ed7565b5060c08301516121e560c0860182612249565b5060e08301516121f860e0860182611dcf565b5061010083015161220d610100860182612249565b50610120830151612222610120860182612249565b5061014083015184820361014086015261223c8282611ee6565b9150508091505092915050565b6122528161256c565b82525050565b6122618161256c565b82525050565b600060208201905061227c6000830184611dde565b92915050565b6000602082019050818103600083015261229c8184611ded565b905092915050565b600060208201905081810360008301526122be8184611e62565b905092915050565b600060208201905081810360008301526122df81611f58565b9050919050565b600060208201905081810360008301526122ff81611fbe565b9050919050565b6000602082019050818103600083015261231f81611ffe565b9050919050565b6000602082019050818103600083015261233f8161203e565b9050919050565b6000602082019050818103600083015261235f8161207e565b9050919050565b600060208201905061237b6000830184612258565b92915050565b600060a0820190506123966000830188612258565b6123a36020830187612258565b81810360408301526123b58186611f1f565b90506123c46060830185611dde565b6123d16080830184612258565b9695505050505050565b6000604051905081810181811067ffffffffffffffff821117156123fe57600080fd5b8060405250919050565b600067ffffffffffffffff82111561241f57600080fd5b602082029050602081019050919050565b600067ffffffffffffffff82111561244757600080fd5b601f19601f8301169050602081019050919050565b600067ffffffffffffffff82111561247357600080fd5b601f19601f8301169050602081019050919050565b6000819050602082019050919050565b6000819050602082019050919050565b600081519050919050565b600081519050919050565b600081519050919050565b6000602082019050919050565b6000602082019050919050565b600082825260208201905092915050565b600082825260208201905092915050565b600082825260208201905092915050565b600082825260208201905092915050565b60006125328261254c565b9050919050565b6000819050612547826125db565b919050565b600073ffffffffffffffffffffffffffffffffffffffff82169050919050565b6000819050919050565b600061258182612539565b9050919050565b82818337600083830152505050565b60005b838110156125b557808201518184015260208101905061259a565b838111156125c4576000848401525b50505050565b6000601f19601f8301169050919050565b600581106125e557fe5b50565b6125f181612527565b81146125fc57600080fd5b50565b6126088161256c565b811461261357600080fd5b5056fea365627a7a723158209d2cca1d9b6c42fa8fd9319194d996dfaf6fc668504a53a5259e6ef63acdb78d6c6578706572696d656e74616cf564736f6c63430005100040",
  "source": "// SPDX-License-Identifier: GPL-3.0\r\npragma solidity >=0.4.0 <0.9.0;\r\npragma experimental ABIEncoderV2;\r\n\r\ncontract Contacts {\r\n\r\n    enum ConsentStatus {REQUESTED, GRANTED, REJECTED, REVOKED, EXPIRED}\r\n\r\n    struct Consent {\r\n        uint id;\r\n        uint parentId;\r\n        uint clinicalTrialId;\r\n        address requestedBy;\r\n        address patient;\r\n        ConsentStatus status;\r\n        uint statusChangedAt;\r\n        address statusChangedBy;\r\n        uint createdAt;\r\n        uint expiresAt;\r\n        string additionalInformation;\r\n        // string additionalArtifacts;\r\n    }\r\n\r\n    struct ClinicalTrial {\r\n        uint id;\r\n        uint parentId;\r\n        string name;\r\n        address createdBy;\r\n        uint createdAt;\r\n\r\n        // string[] generalInformation;\r\n        // string[] rareDiseaseClauses;\r\n    }\r\n\r\n    struct PatientConsents {\r\n        uint count;\r\n        mapping(uint => Consent) consents;\r\n    }\r\n\r\n    uint patientsCount = 0;\r\n    mapping(uint => address) public patients;\r\n    mapping(address => PatientConsents) public patientsConsents;\r\n\r\n    uint public clinicalTrialsCount = 0;\r\n    mapping(uint => ClinicalTrial) public clinicalTrials;\r\n\r\n    address[] public researchers = [\r\n        0xbEB9826bBa0AC436A4a12dCC584A0b2346405068,\r\n        0xB4B0bF3942651724d34327694787e24Bd2147AA5,\r\n        0x85D0304fB869448B460BEFAA8fB246A6C4E2b72C\r\n    ]; \r\n\r\n     constructor() public{\r\n        \r\n    }\r\n\r\n\r\n    modifier onlyResearchers() {\r\n        require(isResearcher(), \"Only researchers can perform this action\");\r\n        _;\r\n    }\r\n\r\n\r\n    function isResearcher() private view returns (bool) {\r\n        for (uint i = 0; i < researchers.length; i++) {\r\n            if (researchers[i] == msg.sender) {\r\n                return true;\r\n            }\r\n        }\r\n        return false;\r\n    }\r\n\r\n\r\n    function createClinicalTrial(\r\n        string memory _name\r\n    ) public onlyResearchers {\r\n        clinicalTrialsCount++;\r\n        clinicalTrials[clinicalTrialsCount] = ClinicalTrial({\r\n            id: clinicalTrialsCount,\r\n            parentId: 0,\r\n            name: _name,\r\n            createdBy: msg.sender,\r\n            createdAt: block.timestamp\r\n            \r\n        });\r\n    }\r\n\r\n    function updateClinicalTrial(\r\n    uint _clinicalTrialId,\r\n    string[] memory _generalInformation,\r\n    string[] memory _rareDiseaseClauses\r\n    ) public onlyResearchers {\r\n    require(_clinicalTrialId >= 1 && _clinicalTrialId <= clinicalTrialsCount, \"Invalid clinical trial ID\");\r\n    \r\n    clinicalTrialsCount++;\r\n    \r\n    clinicalTrials[clinicalTrialsCount] = ClinicalTrial({\r\n        id: clinicalTrialsCount,\r\n        parentId: _clinicalTrialId,\r\n        name: clinicalTrials[clinicalTrialsCount].name,\r\n        createdBy: msg.sender,\r\n        createdAt: block.timestamp\r\n    });\r\n    \r\n    for (uint i = 1; i <= patientsCount; i++) {\r\n        address patientAddr = patients[i];\r\n        PatientConsents storage patientConsents = patientsConsents[patientAddr];\r\n        \r\n        for (uint j = 1; j <= patientConsents.count; j++) {\r\n            Consent storage consent = patientConsents.consents[j];\r\n            \r\n            if (consent.clinicalTrialId == _clinicalTrialId) {\r\n                consent.status = ConsentStatus.EXPIRED;\r\n                consent.statusChangedAt = block.timestamp;\r\n                consent.statusChangedBy = msg.sender;\r\n                \r\n                requestConsent(patientAddr, clinicalTrialsCount, j,\r\n                    consent.expiresAt, consent.additionalInformation\r\n                    );\r\n            }\r\n        }\r\n    }\r\n    }\r\n\r\n\r\n\r\n    function getClinicalTrials() public view returns (ClinicalTrial[] memory) {\r\n        ClinicalTrial[] memory ret = new ClinicalTrial[](clinicalTrialsCount);\r\n        for (uint i = 0; i < clinicalTrialsCount; i++) {\r\n            ret[i] = clinicalTrials[i+1];\r\n        }\r\n        return ret;\r\n    }\r\n\r\n\r\n\r\n    function getClinicalTrialConsents(uint _clinicalTrialId) public view returns (Consent[] memory) {\r\n        require(isResearcher(), \"Access not allowed\");\r\n        require(_clinicalTrialId >= 1 && _clinicalTrialId <= clinicalTrialsCount, \"Invalid clinical trial ID\");\r\n        \r\n        // Determine the number of consents (non-dynamic array)\r\n        uint consentsNb = 0;\r\n        for (uint i = 0; i < patientsCount; i++) {\r\n            PatientConsents storage patientConsents = patientsConsents[patients[i+1]];\r\n            for (uint j = 0; j < patientConsents.count; j++) {\r\n                Consent storage consent = patientConsents.consents[j+1];\r\n                if (consent.clinicalTrialId == _clinicalTrialId) {\r\n                    consentsNb++;\r\n                }\r\n            }\r\n        }\r\n        \r\n        // Store all consents in an array that will be returned\r\n        Consent[] memory consents = new Consent[](consentsNb);\r\n        uint consentCount = 0;\r\n        for (uint i = 0; i < patientsCount; i++) {\r\n            PatientConsents storage patientConsents = patientsConsents[patients[i+1]];\r\n            for (uint j = 0; j < patientConsents.count; j++) {\r\n                Consent storage consent = patientConsents.consents[j+1];\r\n                if (consent.clinicalTrialId == _clinicalTrialId) {\r\n                    consents[consentCount++] = consent;\r\n                }\r\n            }\r\n        }\r\n\r\n        return consents;\r\n    }\r\n\r\n\r\n\r\n    function requestConsent(\r\n        address _patientAddr,\r\n        uint _clinicalTrialId,\r\n        uint _parentId,\r\n        uint _expiresAt,\r\n        string memory _additionalInformation\r\n    ) public onlyResearchers {\r\n        PatientConsents storage patientConsents = patientsConsents[_patientAddr];\r\n        \r\n        if (patientConsents.count == 0) {\r\n            patientsCount++;\r\n            patients[patientsCount] = _patientAddr;\r\n        }\r\n        \r\n        patientConsents.count++;\r\n    \r\n        patientConsents.consents[patientConsents.count] = Consent({\r\n            id: patientConsents.count,\r\n            parentId: _parentId,\r\n            clinicalTrialId: _clinicalTrialId,\r\n            requestedBy: msg.sender,\r\n            patient: _patientAddr,\r\n            status: ConsentStatus.REQUESTED,\r\n            statusChangedAt: block.timestamp,\r\n            statusChangedBy: msg.sender,\r\n            createdAt: block.timestamp,\r\n            expiresAt: _expiresAt,\r\n            additionalInformation: _additionalInformation\r\n        });\r\n    }\r\n\r\n\r\n\r\n    function rejectConsent(uint _consentId) public {\r\n        PatientConsents storage patientConsents = patientsConsents[msg.sender];\r\n        require(_consentId >= 1 && _consentId <= patientConsents.count, \"Invalid consent ID\");\r\n        require(patientConsents.consents[_consentId].status == ConsentStatus.REQUESTED, \"Consent not in 'REQUESTED' status\");\r\n        patientConsents.consents[_consentId].status = ConsentStatus.REJECTED;\r\n    }\r\n\r\n\r\n\r\n    function getPatientConsents(address _patientAddr) public view returns (Consent[] memory) {\r\n        require(_patientAddr == msg.sender || isResearcher(), \"Access not allowed\");\r\n        \r\n        Consent[] memory consents = new Consent[](patientsConsents[_patientAddr].count);\r\n        for (uint i = 0; i < patientsConsents[_patientAddr].count; i++) {\r\n            consents[i] = patientsConsents[_patientAddr].consents[i+1];\r\n        }\r\n\r\n        return consents;\r\n    } \r\n\r\n\r\n}",
  "sourcePath": "E:\\TMU-PhD\\SE2\\Distributed Systems\\project\\CTMS project\\smart_contracts\\contracts\\Contacts.sol",
  "compiler": {
    "name": "solc",
    "version": "0.5.16+commit.9c3226ce.Emscripten.clang"
  },
  "schemaVersion": "3.4.13",
  "updatedAt": "2023-07-17T07:29:46.928Z",
  "networkType": "ethereum",
  "devdoc": {
    "methods": {}
  },
  "userdoc": {
    "methods": {}
  }
}